{
  "contractName": "PlayerCard",
  "abi": [
    {
      "constant": true,
      "inputs": [
        {
          "name": "",
          "type": "address"
        }
      ],
      "name": "balanceOf",
      "outputs": [
        {
          "name": "",
          "type": "uint256"
        }
      ],
      "payable": false,
      "stateMutability": "view",
      "type": "function"
    },
    {
      "constant": true,
      "inputs": [
        {
          "name": "",
          "type": "address"
        }
      ],
      "name": "UserBalanceAddr",
      "outputs": [
        {
          "name": "balance",
          "type": "uint256"
        }
      ],
      "payable": false,
      "stateMutability": "view",
      "type": "function"
    },
    {
      "constant": true,
      "inputs": [
        {
          "name": "",
          "type": "uint256"
        }
      ],
      "name": "players",
      "outputs": [
        {
          "name": "name",
          "type": "string"
        },
        {
          "name": "imgUrl",
          "type": "string"
        },
        {
          "name": "price",
          "type": "uint256"
        }
      ],
      "payable": false,
      "stateMutability": "view",
      "type": "function"
    },
    {
      "constant": true,
      "inputs": [
        {
          "name": "",
          "type": "uint256"
        }
      ],
      "name": "cardToOwner",
      "outputs": [
        {
          "name": "",
          "type": "address"
        }
      ],
      "payable": false,
      "stateMutability": "view",
      "type": "function"
    },
    {
      "anonymous": false,
      "inputs": [
        {
          "indexed": false,
          "name": "playerId",
          "type": "uint256"
        },
        {
          "indexed": false,
          "name": "name",
          "type": "string"
        },
        {
          "indexed": false,
          "name": "imgUrl",
          "type": "string"
        },
        {
          "indexed": false,
          "name": "price",
          "type": "uint256"
        }
      ],
      "name": "NewPlayer",
      "type": "event"
    },
    {
      "constant": false,
      "inputs": [
        {
          "name": "_name",
          "type": "string"
        },
        {
          "name": "_imgUrl",
          "type": "string"
        },
        {
          "name": "_price",
          "type": "uint256"
        }
      ],
      "name": "createPlayer",
      "outputs": [],
      "payable": false,
      "stateMutability": "nonpayable",
      "type": "function"
    },
    {
      "constant": false,
      "inputs": [
        {
          "name": "_id",
          "type": "uint256"
        }
      ],
      "name": "buyPlayerCard",
      "outputs": [
        {
          "name": "",
          "type": "uint256"
        }
      ],
      "payable": true,
      "stateMutability": "payable",
      "type": "function"
    }
  ],
  "bytecode": "0x608060405234801561001057600080fd5b50610a4f806100206000396000f3fe608060405260043610610072576000357c01000000000000000000000000000000000000000000000000000000009004806341a53d2b1461007757806370a08231146100b9578063d576778a1461011e578063da3a6a4e14610287578063f71d96cb146102ec578063ffb976ec14610413575b600080fd5b6100a36004803603602081101561008d57600080fd5b810190808035906020019092919050505061048e565b6040518082815260200191505060405180910390f35b3480156100c557600080fd5b50610108600480360360208110156100dc57600080fd5b81019080803573ffffffffffffffffffffffffffffffffffffffff169060200190929190505050610556565b6040518082815260200191505060405180910390f35b34801561012a57600080fd5b506102856004803603606081101561014157600080fd5b810190808035906020019064010000000081111561015e57600080fd5b82018360208201111561017057600080fd5b8035906020019184600183028401116401000000008311171561019257600080fd5b91908080601f016020809104026020016040519081016040528093929190818152602001838380828437600081840152601f19601f820116905080830192505050505050509192919290803590602001906401000000008111156101f557600080fd5b82018360208201111561020757600080fd5b8035906020019184600183028401116401000000008311171561022957600080fd5b91908080601f016020809104026020016040519081016040528093929190818152602001838380828437600081840152601f19601f8201169050808301925050505050505091929192908035906020019092919050505061056e565b005b34801561029357600080fd5b506102d6600480360360208110156102aa57600080fd5b81019080803573ffffffffffffffffffffffffffffffffffffffff1690602001909291905050506107c4565b6040518082815260200191505060405180910390f35b3480156102f857600080fd5b506103256004803603602081101561030f57600080fd5b81019080803590602001909291905050506107e2565b604051808060200180602001848152602001838103835286818151815260200191508051906020019080838360005b8381101561036f578082015181840152602081019050610354565b50505050905090810190601f16801561039c5780820380516001836020036101000a031916815260200191505b50838103825285818151815260200191508051906020019080838360005b838110156103d55780820151818401526020810190506103ba565b50505050905090810190601f1680156104025780820380516001836020036101000a031916815260200191505b509550505050505060405180910390f35b34801561041f57600080fd5b5061044c6004803603602081101561043657600080fd5b810190808035906020019092919050505061094b565b604051808273ffffffffffffffffffffffffffffffffffffffff1673ffffffffffffffffffffffffffffffffffffffff16815260200191505060405180910390f35b6000806004838154811015156104a057fe5b9060005260206000209060030201600201549050806000803373ffffffffffffffffffffffffffffffffffffffff1673ffffffffffffffffffffffffffffffffffffffff168152602001908152602001600020541015151561050157600080fd5b806000803373ffffffffffffffffffffffffffffffffffffffff1673ffffffffffffffffffffffffffffffffffffffff1681526020019081526020016000206000828254039250508190555080915050919050565b60006020528060005260406000206000915090505481565b600060016004606060405190810160405280878152602001868152602001858152509080600181540180825580915050906001820390600052602060002090600302016000909192909190915060008201518160000190805190602001906105d792919061097e565b5060208201518160010190805190602001906105f492919061097e565b50604082015181600201555050039050336001600083815260200190815260200160002060006101000a81548173ffffffffffffffffffffffffffffffffffffffff021916908373ffffffffffffffffffffffffffffffffffffffff160217905550600260003373ffffffffffffffffffffffffffffffffffffffff1673ffffffffffffffffffffffffffffffffffffffff168152602001908152602001600020600081548092919060010191905055507fbca771af88f024f36cbb835bba7972086bc912cbbefb6a567d3334e768db7a5b81858585604051808581526020018060200180602001848152602001838103835286818151815260200191508051906020019080838360005b8381101561071a5780820151818401526020810190506106ff565b50505050905090810190601f1680156107475780820380516001836020036101000a031916815260200191505b50838103825285818151815260200191508051906020019080838360005b83811015610780578082015181840152602081019050610765565b50505050905090810190601f1680156107ad5780820380516001836020036101000a031916815260200191505b50965050505050505060405180910390a150505050565b60036020528060005260406000206000915090508060000154905081565b6004818154811015156107f157fe5b9060005260206000209060030201600091509050806000018054600181600116156101000203166002900480601f01602080910402602001604051908101604052809291908181526020018280546001816001161561010002031660029004801561089d5780601f106108725761010080835404028352916020019161089d565b820191906000526020600020905b81548152906001019060200180831161088057829003601f168201915b505050505090806001018054600181600116156101000203166002900480601f01602080910402602001604051908101604052809291908181526020018280546001816001161561010002031660029004801561093b5780601f106109105761010080835404028352916020019161093b565b820191906000526020600020905b81548152906001019060200180831161091e57829003601f168201915b5050505050908060020154905083565b60016020528060005260406000206000915054906101000a900473ffffffffffffffffffffffffffffffffffffffff1681565b828054600181600116156101000203166002900490600052602060002090601f016020900481019282601f106109bf57805160ff19168380011785556109ed565b828001600101855582156109ed579182015b828111156109ec5782518255916020019190600101906109d1565b5b5090506109fa91906109fe565b5090565b610a2091905b80821115610a1c576000816000905550600101610a04565b5090565b9056fea165627a7a72305820b627b99b8ad36819d2fcf19ced740a95426f4693d2235726794da1602407d0d60029",
  "source": "pragma solidity ^0.5.0;\r\n\r\ncontract PlayerCard {\r\n    event NewPlayer(uint playerId, string name, string imgUrl, uint price);\r\n    \r\n    struct Player {\r\n        string name;\r\n        string imgUrl;\r\n        uint price;\r\n    }    \r\n    \r\n    struct Utilisateur {\r\n        uint balance;\r\n    }\r\n    \r\n    mapping(address => uint256) public balanceOf;\r\n    mapping (uint => address) public cardToOwner;\r\n    mapping (address => uint) ownerCardCount;\r\n    mapping (address => Utilisateur) public UserBalanceAddr;\r\n    \r\n    Player[] public players;\r\n    \r\n    function createPlayer(string memory _name, string memory _imgUrl, uint _price) public {\r\n        uint id = players.push(Player(_name, _imgUrl, _price)) - 1;\r\n        cardToOwner[id] = msg.sender;\r\n        ownerCardCount[msg.sender]++;\r\n        emit NewPlayer(id, _name, _imgUrl, _price);\r\n    }\r\n    \r\n    function buyPlayerCard(uint _id) public payable returns (uint) {\r\n        uint cardAmount = players[_id].price;\r\n        require(balanceOf[msg.sender] >= cardAmount);\r\n        balanceOf[msg.sender] -= cardAmount;\r\n        return cardAmount;\r\n    }\r\n}",
  "sourcePath": "D:/Wamp/www/FiveChain-League/contracts/PlayerCard.sol",
  "compiler": {
    "name": "solc",
    "version": "0.5.1+commit.c8a2cb62.Emscripten.clang"
  },
  "schemaVersion": "3.3.2",
  "updatedAt": "2021-01-25T17:54:57.436Z",
  "networkType": "ethereum",
  "devdoc": {
    "methods": {}
  },
  "userdoc": {
    "methods": {}
  }
}